:1000000012C01FC01EC01DC01CC01BC01AC019C01A
:1000100018C017C016C015C014C013C012C011C03C
:1000200010C00FC00EC011241FBECFEDCDBF20E009
:10003000A0E6B0E001C01D92A236B207E1F76DD094
:1000400082C0DECF969A86EA8A95F1F700C096982C
:1000500086EA8A95F1F700C00895969886EA8A950F
:10006000F1F700C0969A86EA8A95F1F700C00895E4
:100070001F93CF93DF931F92CDB7DD27811101C06E
:1000800080E510E08983E9DF1F5F89811813FACFCB
:10009000969A86E791E00197F1F700C000000F9073
:1000A000DF91CF911F910895FF920F931F93CF93EC
:1000B000DF93C82FF62ED82FD09516E004EE07FD5B
:1000C00002C0CBDF01C0BEDF000F1150C1F7F1103D
:1000D00003C0B8DFC2DF02C0C0DFB4DF18E0C7FD75
:1000E00002C0BBDF01C0AEDFCC0F1150C1F7C8E0CA
:1000F000D7FD02C0B2DF01C0A5DFDD0FC150C1F7DF
:10010000969A86E791E00197F1F700C00000DF9131
:10011000CF911F910F91FF9008958D9A8A98929A8E
:100120008E9A80E0A5DF969AC0E2829906C082B3DB
:100130008C2782BB61E081E003C0959861E082E09A
:0A014000B3DF9698F2CFF894FFCFDA
:00000001FF
