:1000000012C021C020C01FC01EC0BAC01CC01BC06F
:100010001AC019C018C017C016C015C014C013C02C
:1000200012C011C010C011241FBECFE5D4E0DEBF46
:10003000CDBF20E0A0E6B0E001C01D92A137B2071D
:10004000E1F70BD087C1DCCF82E08EBD8EB58F7B10
:100050008EBD89B7806289BF089581B3836081BBFB
:10006000919A909AB99AC19A2FEF39E688E1215076
:1000700030408040E1F700C00000C198E5DF78948F
:1000800086B1866086B93E9A3D9A91E080916E0075
:10009000813009F04FC080916F00209162002111E2
:1000A0001CC08130D1F4C19A91982FEF34E38CE0D9
:1000B000215030408040E1F700C00000919A9093B9
:1000C000620010926000379A2FEF39E688E12150E4
:1000D00030408040E1F700C0000080916F00209127
:1000E0006200213029F5823019F5C19891982FEFDF
:1000F00032E587E0215030408040E1F700C0000049
:10010000919A2FEF34E38CE0215030408040E1F7AA
:1001100000C0000091982FEF32E587E02150304079
:100120008040E1F700C00000919A10926200379879
:1001300010926E0080916200813009F0A7CF36994D
:1001400018C085B18093610084568B3530F0809162
:1001500060008F5F8093600002C0109260002FEFFC
:1001600036E781E0215030408040E1F700C00000D8
:10017000369A80916000893008F488CF919886CFB4
:100180001F920F920FB60F9211242F933F934F930C
:100190005F936F937F938F939F93AF93BF93EF93EF
:1001A00086B597B52091630030916400821B930B54
:1001B00026B537B530936400209363002EB530E444
:1001C00023272EBD893324E0920710F0109265009A
:1001D00020916500211113C01092660010926700F3
:1001E000109268001092690010926A008EB58064C7
:1001F0008EBD81E08093650080936B0092C030914A
:100200006B00313009F08DC08C3C31E0930708F46D
:1002100004C0893334E0930710F010926B003091E2
:100220006B00313009F07DC08D31924018F02F5FA6
:10023000209365002091650020FD70C080916600CC
:1002400090916700A0916800B0916900880F991F94
:10025000AA1FBB1F8093660090936700A09368005D
:10026000B09369000EB406FE09C0816080936600F9
:1002700090936700A0936800B093690080916A0032
:100280008F5F80936A00873109F048C080916E00CB
:10029000811142C08091660090916700A091680032
:1002A000B0916900E82FE095492F5A2F6B2F7727DF
:1002B00040936F00CD01AA27BB27482F30916C00D7
:1002C000831306C0309170003F5F3093700002C00E
:1002D0001092700040936C0030916F00E3131CC0CB
:1002E000AC01BD014C775527662777274436A1F42A
:1002F000AC01BD014370552766277727415051094E
:100300004230510548F481709927AA27BB27809372
:100310006D0081E080936E0010926B002F5F209340
:10032000650080916B00811105C0109265008EB54B
:100330008F7B8EBDEF91BF91AF919F918F917F91F8
:100340006F915F914F913F912F910F900FBE0F9042
:080350001F901895F894FFCFEF
:00000001FF
